:100000000C9434000C9451000C9451000C94510049
:100010000C9451000C9451000C9451000C9451001C
:100020000C9451000C9451000C9451000C9451000C
:100030000C9451000C9451000C9451000C945100FC
:100040000C9451000C9451000C9451000C945100EC
:100050000C9451000C9451000C9451000C945100DC
:100060000C9451000C94510011241FBECFEFD8E026
:10007000DEBFCDBF11E0A0E0B1E0EAE3F9E002C0ED
:1000800005900D92AA32B107D9F721E0AAE2B1E0BA
:1000900001C01D92A835B207E1F70E94C1000C947F
:1000A0009B040C9400001092C50087E68093C40066
:1000B000E2ECF0E0808186608083E1ECF0E080811A
:1000C000886180830895CF93C82F8A3019F48DE01A
:1000D0000E9463008091C00085FFFCCFC093C600E2
:1000E00080E090E0CF9108958091C000807890E00A
:1000F0000895CF938091C00087FFFCCFC091C600C8
:1001000060E070E08C2F0E946300CD3031F460E03D
:1001100070E08AE00E946300CAE08C2F90E0CF91EB
:100120000895EF92FF920F931F93CF93DF937C017B
:10013000EC0180E090E00E947900182F609154015A
:100140007091550190E00E944F011A3041F41882DD
:10015000DF91CF911F910F91FF90EF90089518308C
:1001600069F4EC16FD0650F460915401709155014C
:1001700088E090E00E944F012197DBCF1883219601
:10018000D8CF0E94530080E091E090935501809376
:100190005401909353018093520194B180E28927D6
:1001A00084B98EE091E00E94A1019AE2892E91E04B
:1001B000992E0BE111E026E2E22E21E0F22E30E250
:1001C000C32E31E0D32E88E191E00E94A10140913D
:1001D00052015091530168E270E08AE291E00E947E
:1001E00023018AE2A82E81E0B82EC0E0D0E0F4011D
:1001F00001900020E9F73197EA52F140CE17DF076E
:1002000010F7DF93CF931F930F930E948B01F5019B
:1002100081915F0190EE980F0F900F900F900F90CB
:10022000903628F01F928F93DF92CF9204C01F92D6
:100230008F93FF92EF920E948B010F900F900F907F
:100240000F902196D4CFA0E0B0E0E9E2F1E00C9469
:100250006E04FA01238120FD03C080E090E01AC003
:1002600016161706D4F77A018C01EB016C01C13028
:10027000D10569F0C7010E94C8038F3FFFEF9F07B8
:1002800061F3F60181936F0121970A9781F7F601D7
:100290001082C801CDB7DEB7E8E00C948A040F9352
:1002A0001F93CF93DF93FB01238121FD03C08FEFC9
:1002B0009FEF2CC022FF16C04681578124813581D3
:1002C0004217530744F4A081B1819D012F5F3F4F36
:1002D000318320838C93268137812F5F3F4F378373
:1002E000268314C08B01EC01FB010084F185E02D15
:1002F0000995892BE1F6D80116968D919C91179757
:10030000019617969C938E931697CE01DF91CF910D
:100310001F910F910895A0E0B0E0E1E9F1E00C94A5
:100320007404AE014B5F5F4FFA0161917191AF01AF
:1003300080915401909155010E94D101E2E00C940A
:1003400090040F931F93CF93DF93E0915401F091AA
:100350005501238121FF1BC08C01D0E0C0E0F801D2
:1003600081918F016091540170915501DB011896C4
:10037000ED91FC911997882331F00995892B79F338
:10038000DFEFCFEFECCF8AE00995892B19F08FEFE3
:100390009FEF02C08D2F9C2FDF91CF911F910F9166
:1003A0000895ABE0B0E0E7EDF1E00C9464046C017B
:1003B0007B018A01FC0117821682838181FFCCC1F7
:1003C000CE0101963C01F6019381F70193FD8591E1
:1003D00093FF81917F01882309F4BAC1853239F4F2
:1003E00093FD859193FF81917F01853229F4B601B8
:1003F00090E00E944F01E7CF912C212C312CFFE19E
:10040000F315D8F08B3279F038F4803279F08332FA
:10041000A1F4232D20611DC08D3261F0803369F479
:10042000232D216016C0832D8260382EE32DE460D9
:100430003E2E2AC0F32DF8601DC037FC2DC020EDE4
:10044000280F2A3040F08E32B9F436FC81C1232DBA
:100450002064322E19C036FE06C08AE0989E200D18
:100460001124922E11C0EAE02E9E200D1124222E7E
:10047000F32DF0623F2E08C08C3621F4832D806866
:10048000382E02C0883641F4F70193FD859193FF21
:1004900081917F018111B3CF982F9F7D9554933027
:1004A00028F40C5F1F4F9FE399830DC0833631F012
:1004B000833771F0833509F059C021C0F80180817C
:1004C00089830E5F1F4F88248394912C530113C09E
:1004D0002801F2E04F0E511CF801A080B18036FED9
:1004E00003C0692D70E002C06FEF7FEFC5010E946D
:1004F000BD034C018201F32DFF773F2E16C028016A
:1005000022E0420E511CF801A080B18036FE03C0EB
:10051000692D70E002C06FEF7FEFC5010E94B2034A
:100520004C01F32DF0683F2E820133FC1BC0822D5D
:1005300090E088169906B0F4B60180E290E00E943F
:100540004F012A94F4CFF50137FC859137FE819154
:100550005F01B60190E00E944F0121102A9421E032
:10056000821A91088114910471F7E8C0843611F061
:10057000893641F5F80137FE07C0608171818281BB
:1005800093810C5F1F4F08C060817181072E000CA2
:10059000880B990B0E5F1F4FF32DFF763F2E97FFB1
:1005A00009C090958095709561957F4F8F4F9F4FB3
:1005B000F0683F2E2AE030E0A3010E940604882E56
:1005C000861845C0853731F4232D2F7EB22E2AE0C0
:1005D00030E025C0932D997FB92E8F36C1F018F4E5
:1005E000883579F0B5C0803719F0883721F0B0C070
:1005F000E92FE061BE2EB4FE0DC0FB2DF460BF2ECE
:1006000009C034FE0AC0292F2660B22E06C028E099
:1006100030E005C020E130E002C020E132E0F80126
:10062000B7FE07C060817181828193810C5F1F4F8B
:1006300006C06081718180E090E00E5F1F4FA301D2
:100640000E940604882E8618FB2DFF773F2E36FE6B
:100650000DC0232D2E7FA22E891458F434FE0BC01A
:1006600032FC09C0832D8E7EA82E05C0B82CA32C89
:1006700003C0B82C01C0B92CA4FE0FC0FE01E80DC8
:10068000F11D8081803321F49A2D997EA92E09C015
:10069000A2FE06C0B394B39404C08A2D867809F0F4
:1006A000B394A3FC11C0A0FE06C0B21488F4280CB9
:1006B000922C9B180EC0B21460F4B60180E290E058
:1006C0000E944F01B394F7CFB21418F42B1802C054
:1006D000982C212CA4FE10C0B60180E390E00E946B
:1006E0004F01A2FE17C0A1FC03C088E790E002C042
:1006F00088E590E0B6010CC08A2D867859F0A1FEFD
:1007000002C08BE201C080E2A7FC8DE2B60190E05E
:100710000E944F01891438F4B60180E390E00E94F2
:100720004F019A94F7CF8A94F301E80DF11D80816F
:10073000B60190E00E944F018110F5CF222009F40C
:1007400042CEB60180E290E00E944F012A94F6CF9B
:10075000F6018681978102C08FEF9FEF2B96E2E131
:100760000C948004FC010590615070400110D8F792
:10077000809590958E0F9F1F0895FC0161507040E9
:1007800001900110D8F7809590958E0F9F1F0895C6
:10079000CF93DF93EC012B8120FF33C026FF0AC0EB
:1007A0002F7B2B838E819F8101969F838E838A81ED
:1007B00090E029C022FF0FC0E881F9818081082ED6
:1007C000000C990B009719F420622B831AC0319604
:1007D000F983E8830EC0EA85FB85099597FF09C078
:1007E0002B81019611F080E201C080E1822B8B8386
:1007F00008C02E813F812F5F3F4F3F832E83992773
:1008000002C08FEF9FEFDF91CF910895FA01AA27E1
:10081000283051F1203181F1E8946F936E7F6E5F43
:100820007F4F8F4F9F4FAF4FB1E03ED0B4E03CD0F1
:10083000670F781F891F9A1FA11D680F791F8A1FD4
:10084000911DA11D6A0F711D811D911DA11D20D03B
:1008500009F468943F912AE0269F11243019305DF5
:100860003193DEF6CF010895462F4770405D4193E6
:10087000B3E00FD0C9F7F6CF462F4F70405D4A3333
:1008800018F0495D31FD4052419302D0A9F7EACFFB
:10089000B4E0A6959795879577956795BA95C9F72A
:1008A00000976105710508959B01AC010A2E06941D
:1008B0005795479537952795BA95C9F7620F731FD6
:1008C000841F951FA01D08952F923F924F925F9213
:1008D0006F927F928F929F92AF92BF92CF92DF9250
:1008E000EF92FF920F931F93CF93DF93CDB7DEB7B5
:1008F000CA1BDB0B0FB6F894DEBF0FBECDBF099449
:100900002A88398848885F846E847D848C849B849F
:10091000AA84B984C884DF80EE80FD800C811B81AD
:10092000AA81B981CE0FD11D0FB6F894DEBF0FBEDC
:0A093000CDBFED010895F894FFCF4C
:10093A000000000300000000630079000000554138
:10094A0052542074657374003E200025643A2000D6
:0A095A00307825780A0025630A00B2
:00000001FF
